:060000000A128A110E280D
:10000800FE00030EF0000A08F1007F08F2000A1251
:100018008A11CA2A0A128A11112883133F30FD0057
:100028000330FE001930FF00353084000A128A11AF
:100038000A230A128A11BF01C001C101C201C3010A
:10004800C401C501C601C70183010A128A112C28FF
:100058002B308400353083120313A7000408A8004E
:100068000A30A9002708840083130008AA00A70AF9
:10007800280884002A088000A80AA90B36288316B5
:100088000313860183120313860183160313870162
:100098003F3083120313870083160313881708174A
:1000A8008816B03083120313C8003C30C9004808D2
:1000B8000A128A11EF220A128A1183120313881E68
:1000C800662867288028023083120313A900453068
:1000D800A800A930A700A70B6F28A80B6F28A90BA9
:1000E8006F280130831203139006BF01C001C701B6
:1000F800B030C8003C30C9000030F6000130F500CF
:100108008630F400A030F3003F08F7004008F800FC
:10011800F901FA010A128A11AD210A128A1173082B
:1001280083120313C6000A30A0000030A10010306B
:10013800F3002730F4004008F6003F08F5000A12E3
:100148008A114A220A128A11740883120313A3001F
:100158007308A2000A128A118E220A128A118312C7
:1001680003132008C5000A30A0000030A100E830C1
:10017800F3000330F4004008F6003F08F5000A12C7
:100188008A114A220A128A11740883120313A300DF
:100198007308A2000A128A118E220A128A11831287
:1001A80003132008C4000A30A0000030A100643006
:1001B800F3000030F4004008F6003F08F5000A128A
:1001C8008A114A220A128A11740883120313A3009F
:1001D8007308A2000A128A118E220A128A11831247
:1001E80003132008C3000A30A0000030A1000A3021
:1001F800F3000030F4004008F6003F08F5000A124A
:100208008A114A220A128A11740883120313A3005E
:100218007308A2000A128A118E220A128A11831206
:1002280003132008C2000A30A0000030A1004008D3
:10023800A3003F08A2000A128A118E220A128A110C
:10024800831203132008C100881F2B292C29332966
:10025800BF01C001C701B030C8003C30C900081F49
:10026800362937294929023083120313A90045305A
:10027800A800A930A700A70B3F29A80B3F29A90B65
:100288003F29013083120313900646082B3E840051
:100298008313000886000710313083120313A70068
:1002A800A70B542983120313071445082B3E840017
:1002B8008313000886008710313083120313A700C8
:1002C800A70B642983120313871444082B3E840068
:1002D8008313000886000711313083120313A70027
:1002E800A70B742983120313071543082B3E8400B8
:1002F8008313000886008711313083120313A70087
:10030800A70B842983120313871542082B3E840008
:100318008313000886000712313083120313A700E5
:10032800A70B942983120313071641082B3E840058
:100338008313000886008712313083120313A70045
:10034800A70BA42983120313871661280A128A119E
:100358000E2883120313A201F61FB329B429C12959
:10036800F309F409F509F609F30A0319F40A03195C
:10037800F50A0319F60AA201A20AFA1FC429C52917
:10038800D429F709F809F909FA09F70A0319F80A43
:100398000319F90A0319FA0A0130FF007F08A206B7
:1003A8000030A6000030A5000030A4000030A300F3
:1003B80076087504740473040319E329E429312ABF
:1003C800A101A10AF4290130A0000310F30DF40DD6
:1003D800F50DF60DA00BE9290130FF007F08A107F4
:1003E800F61FF729F829E7290130A0000310A30D0B
:1003F800A40DA50DA60DA00BFA2976087A02031DF7
:100408000F2A75087902031D0F2A74087802031D44
:100418000F2A73087702031C122A132A222A730848
:10042800F7027408031C740FF8027508031C750F93
:10043800F9027608031C760FFA0223140130031020
:10044800F60CF50CF40CF30CFF3E031D232A0130C7
:10045800A102031D302A312AF82922080319352A56
:10046800362A412AA309A409A509A609A30A03193A
:10047800A40A0319A50A0319A60A2608F6002508DE
:10048800F5002408F4002308F3000800F701F80138
:10049800730874040319512A522A892AF901F90A9E
:1004A800602A01300310F30DF40DFF3E031D562A98
:1004B8000130FF007F08F907F41F632A642A552AD0
:1004C80001300310F70DF80DFF3E031D652A74086F
:1004D8007602031D712A73087502031C742A752A93
:1004E8007C2A7308F5027408031CF603F6027714D5
:1004F80001300310F40CF30CFF3E031D7D2A01307C
:10050800F902031D882A892A642A7808F4007708E2
:10051800F300080083120313200821040319952A05
:10052800962AC52AFA01FA0AA42A01300310A00D56
:10053800A10DFF3E031D9A2A0130FF007F08FA072C
:10054800A11FA72AA82A992A21082302031DAE2A37
:1005580020082202031CB12AB22AB82A2008A202C3
:100568002108031CA303A30201300310A10CA00C53
:10057800FF3E031DB92A0130FA02031DC42AC52A09
:10058800A82A2308A1002208A00008008312031348
:100598000C1CCF2AD02AE62A49088F0048088E006A
:1005A8000130FF007F08C70714304706031DDD2A06
:1005B800DE2AE52A0130BF070318C00A0030C00749
:1005C800C7010C107208FF0071088A00700E8300C2
:1005D800FE0E7E0E0900F500831203139010101210
:1005E80090127508F300F40173088E0074088F00E8
:1005F800831603130C14831203130C108B170B1799
:10060800101008007E088A007F0882000A128A11EA
:1006180006230A128A118000840A04087D06031939
:100628000034FF0A0319FE0A0A2BFC346034DA345A
:0E063800F2346634B634BE34E034FE34F634A8
:02400E00713F00
:00000001FF
